:100000000EC041C0189556C01895189518951895AA
:1000100018951895189518951895189518950FE531
:100020000DBF01E00EBF00E40BBF00E806BD03E01A
:1000300006BD02E40ABD00E003BF01E000BF0AEF15
:100040000EBD00E409BF01E107BB04E008BB00E00E
:1000500005BB03E000BD05B7077C006205BF0024B7
:10006000102C1394202C2A9400E610E028010EE0B6
:1000700012E0380106E812E048010EE01CE05801E9
:1000800000E00FBF46C001E107BB05B7077C006277
:1000900005BF0FE50DBF01E00EBF27C00F930BB7E3
:1000A00000640BBF0F9108950F930BB70F7B0BBF2D
:1000B0000F910895FF93EF931F930F931FB70FBCFA
:1000C000F201208201810395018309F4B49A1FBFD4
:1000D0000F911F91EF91FF91189540E047BB45B7F5
:1000E000477C406345BF8895FECF0FEF18E0DCDF0B
:1000F000789450D0F894D2DFE20133E00C810230E2
:1001000014F403950C83789402304CF000E00C83D7
:10011000E4CFE20100E00C8333E0AA82BB82F894D2
:10012000EA81FB8105911591412F40234215A9F3E6
:10013000EA83FB8340E04C83789406D03A9569F2D9
:100140000FEF10E027D0EBCFFF93EF931F930F93A8
:10015000F801059100934E00059105911591412FED
:100160004023421511F006D0F8CF0F911F91EF9167
:10017000FF910895FF93EF931F930F93F80105915B
:100180001591121511F006D0FACF0F911F91EF9132
:10019000FF910895FF93EF931F930F93021549F07A
:1001A000000FF301E00FF01D059103BF059109BD9C
:1001B00003C0002D03BF09BD110F110FF401E10FA2
:1001C000F01D059115910ED005911591402F412BF1
:1001D00021F0402D43BF49BD05D00F911F91EF91F4
:1001E000FF910895FF93EF93C801482F492B61F0C9
:1001F000F201F894008278948895F8944081401533
:10020000D1F378940197A9F7EF91FF9108950377BF
:100210000370036A0364035E03590354034F034BE3
:1002200003470343033F033B033803350332032FE4
:10023000032C032A032703250323032102FD02EED7
:1002400002E102D402C802BD02B202A8029F0296D5
:10025000028E0286027E02770270026A0264025EE9
:1002600002590254024F024B02470243023F023B33
:10027000023802350232022F022C022A02270225FE
:100280000223022101FDC02B20032003C02BE02EFE
:10029000000000000000304320032003304350469C
:1002A00000000000000018155702200350147017BA
:1002B000000000000000082020032003082028235D
:1002C0000000000000008C0A2B0157026009B80BE7
:1002D000000000000000D20FC2012003740E941130
:1002E000000000000000460595002B01B004DC056D
:1002F000000000000000E907E100C1010807CA088A
:10030000000000000000A3024A0095005802EE021F
:10031000000000000000F4037000E00084036504A6
:10032000000000000000510125004A002C01770167
:10033000000000000000FA0138007000C201320223
:10034000000000000000A800120025009600BB007D
:10035000000000000000FD001C003800E100190151
:10036000000000000000261A241823182418261064
:1003700023101F1021102310FF12231821181F18FB
:10038000211823101F101A101E101F10FF12FFFF3C
:1003900021102610260823102610260821102810C8
:1003A000261023102610241823182108FFFF2114DB
:1003B0002318241021102312241026082810261098
:1003C00024102310240CFF12FFFF211423182410E3
:1003D00021102310241026081A1023102310211096
:1003E0001F0CFF12FFFF2114231821101F101E08DD
:1003F0001C081A101C181E181F101E101C0CFF12AF
:100400001E10211023102110260825122310211060
:100410001F181E181F1021101E0CFF12FFFF21189D
:1004200021101E18211821101E1821181F101C1829
:100430001F181E10FF1A211821101E182118211034
:100440001E1821181F101C181F181E10FF1A1E1826
:100450001C101C181C181F101F181F181E101E1807
:100460001E182310FF1A23182110211821182610F6
:1004700021181E1821101F181C181A14FF1AFFFF2C
:10048000241021181D1021182410261824142410BB
:1004900021181D10211824102618241422102218A7
:1004A00022102418221021181F102118241021189E
:1004B0001D1021181F101D181F1021181D141D14A8
:1004C000FFFF2408211022102418261824182618AB
:1004D000240822081F10241021001F101F102110B3
:1004E0001D1021081F082210221024101F1022089E
:1004F00021081F101F102110231024081F0821108D
:100500002610241023102608240824082110221065
:100510002418261824182618240822081F1024102E
:100520002100FFFF26182F182D182B18261426201F
:10053000262026182F182D182B18280828183018B0
:100540002F182D182A083218321830182D182F0895
:1005500026182F182D182B18260826182F182D1896
:100560002B1828142818281830182F182D1832186E
:100570003218321832183418321830182D182B103F
:10058000FF122F182F182F102F182F182F102F1879
:1005900032182B1C2D202F0830183018301C30201A
:1005A00030182F182F182F202F202F182D182D1806
:1005B0002F182D1232102F182F182F102F182F1818
:1005C0002F102F1832182B1C2D202F083018301800
:1005D000301C302030182F182F182F202F203218C1
:1005E000321830182D182B08FFFF21102110211868
:1005F000231821181F181E101E101E10FF121F1086
:100600001F101F1821181F181E181C101C101C105A
:10061000FF121A101C101E101F10211C232021185D
:1006200023182108261021102118231821181F181B
:100630001E101C1021082610211021182318211823
:100640001F181E101C101A08FFFF211E232021183E
:100650001E14211C232021181E14281028182514CC
:1006600026102618211423102318261E25202318AF
:10067000211E232021181E1423102318261E252096
:100680002318211E232021181E14281028182B1C83
:100690002820251826162A14261E21201E18211C63
:1006A0001F201C181A161A10FF1AFFFF21102610FF
:1006B0002618281826182518231023102310281070
:1006C00028182A18281826182510211021102A1059
:1006D0002A182B182A182818261023102118211838
:1006E0002310281025102608211026102610261069
:1006F00025082510261025102310210828102A105F
:1007000028182818261826182D102A102118211804
:100710002310281025102608FFFF24182418281855
:100720002B1028182B1830182D182B1028182B18C0
:100730002D182B18291026102B182B182810FF1AEB
:10074000281828182B1829102618291829182D18A8
:100750002B102818281828182B18291026102B18A9
:100760002B182810FF1AFFFF24082410241026102D
:10077000241024082108220821101F121F101D0810
:100780001C101D08240824102410261024102408EE
:100790002108220821101F121F101D081C101D08FF
:1007A000FF1221101F101C101D101A10180CFF1220
:1007B00024102410241026102410240821082208B4
:1007C00021101F121F101D081C101D08FFFF3010E4
:1007D000301A2D18321A2E183010301A2D18321ADD
:1007E0002E1830102D1A30182B1A2D18290CFFFF37
:1007F00029102D1829182D18301829102D182918EE
:100800002B18241829102D1829182D1830182910E4
:100810002D1829182B18241830102D1A30182B1ABF
:100820002D18290CFFFF2D102D182B182D182B1803
:1008300029162910FF1A29102618291828182618F1
:1008400024162410FF1A2B182A182B182E182D18CE
:100850002B1829162910FF1A2B1C262026182818B9
:100860002618281829162910FF1AFFFF2B102E080A
:100870002C102B082910271229102B1029082E10B4
:100880002C082C102B082B102912271029102708B0
:100890002B10290829102B122D102E102E1230107B
:1008A0002D102E0829102B0829102B122D102E1078
:1008B0002E1230102D102E082E1030082E10300859
:1008C0002E1030122E102C102B082E1030082E1047
:1008D00030082E1030122E102C102B082E10270846
:1008E00027102C082B10290E29082E102C082B104D
:1008F000291227102910270E2708FFFF2B1026107A
:1009000028102610281A2B182A1A2D182B102610FA
:100910002F102F1A301832102F1030102F102D08D2
:10092000FFFF30103010341034102D102D1032080D
:100930002B102B10301030102F1A2D182B1A2A18AC
:100940002B08FFFF2D082F082D142B182A122B100F
:100950002D082F082D142B182A122B102D082D08C6
:100960002F083110321031082F082D0028162A18B0
:1009700028102A102B162D182B082A162B182A108F
:100980002B102D162F182D08321231102F122D106A
:1009900032102F102D102B102A0828082600FFFFD8
:1009A0002410291C292029142B182D1C2D202D142E
:1009B0002D182B182D182E1028102B102910FF1A67
:1009C000301830182D183214301830182E182E14F4
:1009D0002E182E182B1830142E182E182D182D14F2
:1009E0002418291C292029142B182D1C2D202D14E6
:1009F0002D182B182D182E1028102B102908FFFF4A
:100A0000211C2120211821181F18211824141F141B
:100A10001F1C1F201F181F1A1D181F182116211018
:100A2000FF1A241C24202418241821181D18291406
:100A30002614241C26202418241822181F181D16DA
:100A40001D10FF1A1F1C1F201F1821182118211804
:100A5000241C22201F1821141F1C1F201F182118BE
:100A600021182118241C22201F182114241C2220A4
:100A7000211821181F181D1829162614241C262099
:100A80002418241822181F181D161D10FF1AFFFF06
:100A90002E082B162C182E082708291A2B1A2C1A68
:100AA0002E1A2C102B1029002B1A2C1A2E1A301843
:100AB0002E102E1033082E082C122B122914271852
:100AC0002700FFFF2B1A291A2B1A2C1A2B102B1078
:100AD000290827082C122B12291027102600271A64
:100AE000261A271A291A2710271030082D082E1227
:100AF000301A2E1A2D142E182E00FFFF241023104A
:100B0000211023101F10211023102410FF1A241865
:100B100024101F101F101C101F101D101C10FF1A76
:100B20001C18211021101F102310241021101F1039
:100B3000FF1A2418231021101F181F1821101D1A26
:100B40001C181A101808FF16FFFF2B1A2D18FFFF8C
:100B50002F102F102D1A2F18301030102F1A301878
:100B600032103210301A2F18FFFF2D082B1A2D18B3
:100B7000FFFF2D08FF12FFFF2D102D1A2B182D1A25
:100B800030182F08FF122F102F1A2D182F1A301877
:100B90002D08321A30182F103210301A2F182D1A33
:100BA0002F1830102F1A2D182B1A2D182F102D102A
:100BB0002B08FF12FFFF241029142B182D102B10C7
:100BC0002908281029102B10291A2B182D102B104A
:100BD0002908FF12301030102D102E10301032085E
:100BE0002E102E102D122E1230102E182D182B0C08
:100BF000FF1230082B082D082B102D1A2E1830103C
:100C0000291A2B182D102B10290CFF12FFFF3C0C5A
:100C1000540C5C0C640C6C0C740C7C0C840C8C0CF4
:100C2000940C9C0CA40CB40CBC0CC40CD40CDC0CAC
:100C3000E40CEC0CFC0C040D200DFFFF8C00660393
:100C400090036603AE03CA03660390036603AE0314
:100C5000CA03FFFFBE00E603E603FFFFC8001E0451
:100C60001E04FFFFDC0080048004FFFF9600C20426
:100C7000C204FFFF960024052405FFFF9600EA0545
:100C8000EA05FFFFFF004A064A06FFFF6400AC06C4
:100C9000AC06FFFFC8001A071A07FFFFC800680765
:100CA0006807FFFF9600CE07CE07F007CE07CE07F6
:100CB000F007FFFFDC0026082608FFFF96006C08FF
:100CC0006C08FFFF9600FC08FC082209FC08FC08E1
:100CD0002209FFFFBE0044094409FFFFB400A00938
:100CE000A009FFFFB400000A000AFFFFB400900A49
:100CF000C40A900A900AC40A900AFFFF9600FC0AF0
:100D0000FC0AFFFF96004A0B500B6A0B500B720B4C
:100D1000780B4A0B500B6A0B500B720B780BFFFFD2
:080D20009600B60BB60BFFFFB5
:00000001FF
