:1000000033C0000086C0000018950000189500005D
:1000100018950000189500001895000089C0000090
:10002000189500001895000018950000189500001C
:10003000189500001895000018950000189500000C
:1000400018950000189500001895000018950000FC
:1000500018950000189500001895000018950000EC
:1000600018950000189500000FEF0DBF08E00EBFB7
:1000700005B711E02DEF102B202315BF25BF00E0A1
:100080000093690001E00DBB00E80093610000E00F
:100090000093610002E404BD00E005BD00936E0022
:1000A00000E00093680000E000938000009381006E
:1000B0000093820000936F0002E00093B000009371
:1000C000B100009370000AEF0093B30000E104B99F
:1000D00000E005B907B908B900E40AB904E00BB9B2
:1000E0000FE80093640001E003BF0024112413947F
:1000F00022242A9400E011E0280106E812E03801E9
:100100000EEF12E0480106E81CE0580100E00FBFC6
:100110003CC000E104B900E40AB901E003BF0FEFFD
:100120000DBF08E00EBF1DC01DBA08950DBA089599
:10013000FF93EF931F930F931FB7F201208201816A
:100140000395018309F41C9A1FBF0F911F91EF9132
:10015000FF91189540E044B94AB945E043BF8895FE
:10016000FECF0FEF18E0E2DF789450D0F894DCDF98
:10017000E20133E00C81023014F403950C8378948F
:1001800002304CF000E00C83E5CFE20100E00C838C
:1001900033E0AA82BB82F894EA81FB810591159134
:1001A000412F40234215A9F3EA83FB8340E04C83AF
:1001B000789406D03A9571F20FEF10E027D0EBCF8C
:1001C000FF93EF931F930F93F80105910093B300F2
:1001D000059105911591412F4023421511F006D04C
:1001E000F8CF0F911F91EF91FF910895FF93EF9337
:1001F0001F930F93F80105911591121511F006D078
:10020000FACF0F911F91EF91FF910895FF93EF9314
:100210001F930F93021549F0000FF301E00FF01D3B
:10022000059105BD059107BD03C0002D05BD07BDA6
:10023000110F110FF401E10FF01D059115910ED072
:1002400005911591402F412B21F0402D45BD47BD13
:1002500005D00F911F91EF91FF910895FF93EF93B8
:10026000C801482F492B61F0F201F894008278947C
:100270008895F89440814015D1F378940197A9F7B7
:10028000EF91FF91089505770570056A0564055E95
:1002900005590554054F054B0547054304FD04EE7C
:1002A00004E104D404C804BD04B204A8049F049665
:1002B000048E0486047E04770470046A0464045E79
:1002C00004590454044F044B0447044303FD03EE54
:1002D00003E103D403C803BD03B203A8039F03963D
:1002E000038E0386037E03770370036A0364035E51
:1002F00003590354034F034B03470343033F805702
:10030000400640068057C05D000000000000608687
:10031000400640066086A08C000000000000302AE5
:10032000AF044006A028E02E0000000000001040AE
:10033000400640061040504600000000000018151E
:100340005702AF04C0127017000000000000A41F85
:1003500084034006E81C28230000000000008C0AEB
:100360002B0157026009B80B000000000000D20FFB
:10037000C2018303100E9411000000000000460526
:1003800095002B01B004DC05000000000000E90727
:10039000E100C1010807CA08000000000000A30234
:1003A0004A0095005802EE02000000000000F4032D
:1003B0007000E000840365040000000000005101AB
:1003C00025004A002C017701000000000000FA011E
:1003D00038007000C2013202000000000000261A3E
:1003E000241823182418261023101F10211023105E
:1003F000FF12231821181F18211823101F101A107C
:100400001E101F10FF12FFFF2110261026082310B8
:100410002610260821102810261023102610241834
:1004200023182108FFFF2114231824102110231260
:10043000241026082810261024102310240CFF1244
:10044000FFFF211423182410211023102410260844
:100450001A102310231021101F0CFF12FFFF21146C
:10046000231821101F101E081C081A101C181E1813
:100470001F101E101C0CFF121E1021102310211023
:1004800026082512231021101F181E181F102110D6
:100490001E0CFF12FFFF211821101E182118211019
:1004A0001E1821181F101C181F181E10FF1A2118C3
:1004B00021101E18211821101E1821181F101C1899
:1004C0001F181E10FF1A1E181C101C181C181F10B5
:1004D0001F181F181E101E181E182310FF1A23188D
:1004E000211021182118261021181E1821101F185C
:1004F0001C181A14FF1AFFFF241021181D102118B0
:10050000241026182414241021181D10211824103A
:100510002618241422102218221024182210211820
:100520001F102118241021181D1021181F101D182C
:100530001F1021181D141D14FFFF24082110221064
:100540002418261824182618240822081F102410FE
:1005500021001F101F1021101D1021081F0822103C
:10056000221024101F10220821081F101F10211014
:10057000231024081F0821102610241023102608F9
:1005800024082408211022102418261824182618BC
:10059000240822081F1024102100FFFF26182F18FE
:1005A0002D182B1826142620262026182F182D1833
:1005B0002B182808281830182F182D182A08321838
:1005C000321830182D182F0826182F182D182B1810
:1005D000260826182F182D182B1828142818281824
:1005E00030182F182D1832183218321832183418C3
:1005F000321830182D182B10FF122F182F182F100B
:100600002F182F182F102F1832182B1C2D202F08C1
:1006100030183018301C302030182F182F182F2089
:100620002F202F182D182D182F182D1232102F189B
:100630002F182F102F182F182F102F1832182B1C8F
:100640002D202F0830183018301C302030182F186B
:100650002F182F202F203218321830182D182B0861
:10066000FFFF211021102118231821181F181E1018
:100670001E101E10FF121F101F101F1821181F1808
:100680001E181C101C101C10FF121A101C101E101B
:100690001F10211C232021182318210826102110A7
:1006A0002118231821181F181E101C1021082610AD
:1006B00021102118231821181F181E101C101A08A9
:1006C000FFFF211E232021181E14211C2320211886
:1006D0001E1428102818251426102618211423105B
:1006E0002318261E25202318211E232021181E141E
:1006F00023102318261E25202318211E232021180D
:100700001E14281028182B1C2820251826162A14F9
:10071000261E21201E18211C1F201C181A161A1014
:10072000FF1AFFFF21102610261828182618251852
:10073000231023102310281028182A1828182618E8
:100740002510211021102A102A182B182A182818D1
:1007500026102310211821182310281025102608F0
:1007600021102610261026102508251026102510E9
:100770002310210828102A102818281826182618AF
:100780002D102A10211821182310281025102608B2
:10079000FFFF2418241828182B1028182B1830189D
:1007A0002D182B1028182B182D182B18291026104F
:1007B0002B182B182810FF1A281828182B18291066
:1007C0002618291829182D182B1028182818281829
:1007D0002B18291026102B182B182810FF1AFFFF92
:1007E000240824102410261024102408210822088C
:1007F00021101F121F101D081C101D082408241092
:1008000024102610241024082108220821101F1269
:100810001F101D081C101D08FF1221101F101C1096
:100820001D101A10180CFF1224102410241026106A
:10083000241024082108220821101F121F101D084F
:100840001C101D08FFFF3010301A2D18321A2E18F8
:100850003010301A2D18321A2E1830102D1A301868
:100860002B1A2D18290CFFFF29102D1829182D18C7
:10087000301829102D1829182B18241829102D1874
:1008800029182D18301829102D1829182B1824185C
:1008900030102D1A30182B1A2D18290CFFFF2D108F
:1008A0002D182B182D182B1829162910FF1A29106E
:1008B000261829182818261824162410FF1A2B1871
:1008C0002A182B182E182D182B1829162910FF1A44
:1008D0002B1C262026182818261828182916291017
:1008E000FF1AFFFF2B102E082C102B08291027129F
:1008F00029102B1029082E102C082C102B082B1037
:1009000029122710291027082B10290829102B122B
:100910002D102E102E1230102D102E0829102B08FD
:1009200029102B122D102E102E1230102D102E08E3
:100930002E1030082E1030082E1030122E102C10D1
:100940002B082E1030082E1030082E1030122E10CA
:100950002C102B082E10270827102C082B10290EDE
:1009600029082E102C082B10291227102910270EC9
:100970002708FFFF2B10261028102610281A2B18E6
:100980002A1A2D182B1026102F102F1A301832105B
:100990002F1030102F102D08FFFF301030103410A2
:1009A00034102D102D1032082B102B103010301059
:1009B0002F1A2D182B1A2A182B08FFFF2D082F0885
:1009C0002D142B182A122B102D082F082D142B183C
:1009D0002A122B102D082D082F0831103210310843
:1009E0002F082D0028162A1828102A102B162D182B
:1009F0002B082A162B182A102B102D162F182D080D
:100A0000321231102F122D1032102F102D102B10EA
:100A10002A0828082600FFFF2410291C2920291451
:100A20002B182D1C2D202D142D182B182D182E10A1
:100A300028102B102910FF1A301830182D183214D6
:100A4000301830182E182E142E182E182B1830147B
:100A50002E182E182D182D142418291C292029147D
:100A60002B182D1C2D202D142D182B182D182E1061
:100A700028102B102908FFFF211C212021182118E4
:100A80001F18211824141F141F1C1F201F181F1AA1
:100A90001D181F1821162110FF1A241C24202418A9
:100AA000241821181D1829142614241C2620241863
:100AB000241822181F181D161D10FF1A1F1C1F2096
:100AC0001F18211821182118241C22201F18211456
:100AD0001F1C1F201F18211821182118241C222038
:100AE0001F182114241C2220211821181F181D183A
:100AF00029162614241C26202418241822181F180E
:100B00001D161D10FF1AFFFF2E082B162C182E087D
:100B10002708291A2B1A2C1A2E1A2C102B102900F0
:100B20002B1A2C1A2E1A30182E102E1033082E08BD
:100B30002C122B12291427182700FFFF2B1A291A11
:100B40002B1A2C1A2B102B10290827082C122B12C9
:100B5000291027102600271A261A271A291A2710C3
:100B6000271030082D082E12301A2E1A2D142E1888
:100B70002E00FFFF24102310211023101F1021101E
:100B800023102410FF1A241824101F101F101C10EB
:100B90001F101D101C10FF1A1C18211021101F10EF
:100BA0002310241021101F10FF1A241823102110C5
:100BB0001F181F1821101D1A1C181A101808FF16CC
:100BC000FFFF2B1A2D18FFFF2F102F102D1A2F1893
:100BD000301030102F1A301832103210301A2F18EF
:100BE000FFFF2D082B1A2D18FFFF2D08FF12FFFF06
:100BF0002D102D1A2B182D1A30182F08FF122F1018
:100C00002F1A2D182F1A30182D08321A30182F10BD
:100C10003210301A2F182D1A2F1830102F1A2D18A5
:100C20002B1A2D182F102D102B08FF12FFFF241048
:100C300029142B182D102B102908281029102B10DF
:100C4000291A2B182D102B102908FF1230103010E4
:100C50002D102E10301032082E102E102D122E12A4
:100C600030102E182D182B0CFF1230082B082D08D1
:100C70002B102D1A2E183010291A2B182D102B106E
:100C8000290CFF12FFFFB40CCC0CD40CDC0CE40CD0
:100C9000EC0CF40CFC0C040D0C0D140D1C0D2C0DA7
:100CA000340D3C0D4C0D540D5C0D640D740D7C0D1C
:100CB000980DFFFF8C00DE030804DE0326044204C7
:100CC000DE030804DE0326044204FFFFBE005E04C8
:100CD0005E04FFFFC80096049604FFFFDC00F804E2
:100CE000F804FFFF96003A053A05FFFF96009C05C1
:100CF0009C05FFFF960062066206FFFFFF00C2062A
:100D0000C206FFFF640024072407FFFFC800920704
:100D10009207FFFFC800E007E007FFFF96004608C4
:100D200046086808460846086808FFFFDC009E0879
:100D30009E08FFFF9600E408E408FFFF9600740990
:100D400074099A09740974099A09FFFFBE00BC0965
:100D5000BC09FFFFB400180A180AFFFFB400780AA4
:100D6000780AFFFFB400080B3C0B080B080B3C0B88
:100D7000080BFFFF9600740B740BFFFF9600C20B6D
:100D8000C80BE20BC80BEA0BF00BC20BC80BE20B53
:100D9000C80BEA0BF00BFFFF96002E0C2E0CFFFF8A
:00000001FF
