:100000000EC03FC0189554C01895189518951895AE
:1000100018951895189518951895189518950FE531
:100020000DBF01E00EBF10E000E40BBF00E806BD0D
:1000300003E006BD02E40ABD13BF01E000BF0AEF02
:100040000EBD00E409BF01E107BB04E008BB15BB1E
:1000500003E000BD05B7077C006205BF0024112442
:10006000139422242A9400E610E028010AE012E00A
:1000700038010AE912E0480108EE18E058011FBFF4
:1000800046C001E107BB05B7077C006205BF0FE56D
:100090000DBF01E00EBF27C00F930BB700640BBF6D
:1000A0000F9108950F930BB70F7B0BBF0F9108951E
:1000B000FF93EF931F930F931FB70FBCF2012082A2
:1000C00001810395018309F4B49A1FBF0F911F9119
:1000D000EF91FF91189540E047BB45B7477C4063DF
:1000E00045BF8895FECF0FEF18E0DCDF789450D045
:1000F000F894D2DFE20133E00C81023014F403956E
:100100000C83789402304CF000E00C83E4CFE201E1
:1001100000E00C8333E0AA82BB82F894EA81FB8181
:1001200005911591412F40234215A9F3EA83FB83E2
:1001300040E04C83789406D03A9569F20FEF10E0D6
:1001400027D0EBCFFF93EF931F930F93F801059107
:1001500000934E00059105911591412F40234215C2
:1001600011F006D0F8CF0F911F91EF91FF910895F4
:10017000FF93EF931F930F93F801059115911215BB
:1001800011F006D0FACF0F911F91EF91FF910895D2
:10019000FF93EF931F930F93021549F0000FF301A4
:1001A000E00FF01D059103BF059109BD03C0002DAF
:1001B00003BF09BD110F110FF401E10FF01D0591EF
:1001C00015910ED005911591402F412B21F0402D16
:1001D00043BF49BD05D00F911F91EF91FF91089545
:1001E000FF93EF93C801482F492B61F0F201F89477
:1001F000008278948895F89440814015D1F37894E2
:100200000197A9F7EF91FF91089503770370036AAF
:100210000364035E03590354034F034B0347034333
:10022000033F033B033803350332032F032C032A18
:10023000032703250323032102FD02EE02E102D47A
:1002400002C802BD02B202A8029F0296028E028676
:10025000027E02770270026A0264025E0259025450
:10026000024F024B02470243023F023B0238023573
:100270000232022F022C022A022702250223022127
:1002800001FD01EE01E101D401C801BD01B201A8E7
:10029000019F0196018E0186017EC02B2003200361
:1002A000C02BE02E0000000000003043200320039C
:1002B000304350460000000000001815570220038C
:1002C00050147017000000000000082020032003D5
:1002D000082028230000000000008C0A2B01570290
:1002E0006009B80B000000000000D20FC20120031B
:1002F000740E9411000000000000460595002B01CB
:10030000B004DC05000000000000E907E100C101C5
:100310000807CA08000000000000A3024A00950078
:100320005802EE02000000000000F4037000E0003C
:1003300084036504000000000000510125004A000C
:100340002C017701000000000000FA013800700065
:10035000C2013202000000000000A80012002500C7
:100360009600BB00000000000000FD001C003800EB
:10037000E1001901000000000000261A28182910C9
:10038000281A26182510261A28182110231A25188D
:100390002610241A221821101F1A1D18FFFF1C10E6
:1003A0001D1A1F18211A1F1A1D1A1C1A1A10FFFFD6
:1003B0001C141D181D0CFFFF1C141A181A0CFFFF2B
:1003C00026101F1A21182318241826101F101F107A
:1003D0002810241A261828182A182B101F101F104E
:1003E0002410261A2418231821182310241A23183D
:1003F00021181F18FFFF1E101F1A211823181F187D
:1004000023102108FFFF2110231A21181F181E187E
:100410001F0CFFFF2F102B1A2D182F182B182D1023
:10042000261A28182A1826182B10281A2A182B18CA
:1004300026182510231A25182110211A23182518EB
:10044000261828182A182B102A1028102A102110D4
:100450002510260C26101F1A1E181F1028101F1AF0
:100460001E181F10261024102310211A1F181E18E2
:100470001F1821101A1A1C181E181F1821182318CB
:10048000241023102110231A26181F101E101F0CD1
:10049000FFFF3218341830182D1A2D182F182B1072
:1004A000261828182418211A211823181F101A1882
:1004B0001C181818151A15181718151814181310D1
:1004C000FF121F101A181B18FFFF1C1824101C18ED
:1004D00024101C18241A240A241824182618271853
:1004E000281824182618281A281823182610240C2F
:1004F0001A181B181C1824101C1824101C18241A55
:10050000240C21181F181E1821182418281A28181E
:10051000261824182118260C1A181B181C18241029
:100520001C1824101C18241A240A2418241826180D
:100530002718281824182618281A281823182610CF
:10054000240C24182618281824182618281A2818C5
:10055000241826182418281824182618281A2818A9
:10056000241826182418281824182618281A281899
:1005700023182610FFFF2B102D182B1A2B182818C4
:1005800029182A182B102D182B1A2B182818241864
:100590001F1821182318241826182818261824187C
:1005A00026181F18281829182B182D182B1828184A
:1005B00029182B102D182B1A2B18281829182A182F
:1005C0002B102D182B1A2B182B182D182E182F180E
:1005D0002F102F1A2F182D182A1826182B0A2B180F
:1005E000281829182A182B102D182B1A2B18281800
:1005F00029182A182B102D182B1A2B1828182418F4
:100600001F1821182318241826182818261824180B
:100610002618240A24181F181E181F182410211821
:10062000241A24182118241821181F1824182818EF
:100630002B1A2B18281824181F18211024102818DA
:100640002610241AFFFF240C1A181B18FFFF240A77
:100650002418281829182A18FFFF2410FF12301018
:10066000FF12FFFF2B122812261224122612281026
:100670002B12281226122412261228102B122812AE
:100680002B122D1228122D122B1228122612240C96
:100690001F121C121A1218121A121C101F121C12EE
:1006A0001A1218121A121C101F121C121F122112D9
:1006B0001C122112231220121E121C0C23122012B3
:1006C0001E121C121E122010231220121E121C12A7
:1006D0001E12201023122012231224122012241280
:1006E000231220121E121C0C231220121E121C1286
:1006F0001E122010231220121E121C121E12201075
:100700002312201223122412211224122612231241
:1007100021121F0C2612231221121F122112231044
:100720002612231221121F12211223102612231225
:100730001F10FF0E261223121F10FF0E2B1228125D
:1007400026122412261228102B12281226122412E6
:10075000261228102B1228122B122D1228122D10BF
:100760002D1229122812260C21121D121C121A12E7
:100770001C121D1021121D121C121A121C121D1007
:1007800021121D12211023121D12231023121F12D9
:10079000231024121F1224102412211224102612B6
:1007A000211226102804260C240C23041F121C12CC
:1007B0001A1218121A121C101F121C121A121812D6
:1007C0001A121C101F121C121F1021121C122112AF
:1007D0001F121C121A12180C2B1228122612241285
:1007E000261228102B122812261224122612281044
:1007F0002B12281226122412261228122B02300441
:10080000FFFF1C1621182416211820162122232050
:1008100021081D161F2221201C081A221820182228
:100820001720181E1C2015081C162122242028160B
:100830002418231624222620240829202B202D20AA
:100840002920282029202B20282026202820292064
:10085000262024202620282024202622242024226A
:100860002320231E282021102D18FF1AFFFF2810F7
:10087000281029162818FF1A26102520262028209F
:100880002620252028202618FF1A26102610281694
:100890002618FF1A24102320242026202420232079
:1008A00026202418FF1A2310231026182410231A98
:1008B0002318211020222120232021202020232042
:1008C00021102818FF1AFF1E1C201E18FF1A2018BE
:1008D000FF1A21182110202221202320212020204E
:1008E00023202118FF1AFFFFF408080920093A09FC
:1008F0004009FFFF96007A039E037A03B0037A0350
:100900009E037A03B803FFFFAA00C003F603C003E7
:100910000604C003F603C003060414041404FFFF16
:1009200078009204CA044606CA044E0676054E06AE
:1009300076054606CA045A06FFFFA0006406FFFFBC
:0A094000AA0002086E080208FFFF7B
:00000001FF
